{
  "_format": "hh-sol-artifact-1",
  "contractName": "DOLAToken",
  "sourceName": "contracts/DOLA.sol",
  "abi": [
    {
      "inputs": [
        {
          "internalType": "string",
          "name": "name",
          "type": "string"
        },
        {
          "internalType": "string",
          "name": "symbol",
          "type": "string"
        },
        {
          "internalType": "address",
          "name": "_roiPriceFeed",
          "type": "address"
        },
        {
          "internalType": "address",
          "name": "_bdolaPriceFeed",
          "type": "address"
        },
        {
          "internalType": "address",
          "name": "_bdolaToken",
          "type": "address"
        }
      ],
      "stateMutability": "nonpayable",
      "type": "constructor"
    },
    {
      "inputs": [
        {
          "internalType": "address",
          "name": "spender",
          "type": "address"
        },
        {
          "internalType": "uint256",
          "name": "allowance",
          "type": "uint256"
        },
        {
          "internalType": "uint256",
          "name": "needed",
          "type": "uint256"
        }
      ],
      "name": "ERC20InsufficientAllowance",
      "type": "error"
    },
    {
      "inputs": [
        {
          "internalType": "address",
          "name": "sender",
          "type": "address"
        },
        {
          "internalType": "uint256",
          "name": "balance",
          "type": "uint256"
        },
        {
          "internalType": "uint256",
          "name": "needed",
          "type": "uint256"
        }
      ],
      "name": "ERC20InsufficientBalance",
      "type": "error"
    },
    {
      "inputs": [
        {
          "internalType": "address",
          "name": "approver",
          "type": "address"
        }
      ],
      "name": "ERC20InvalidApprover",
      "type": "error"
    },
    {
      "inputs": [
        {
          "internalType": "address",
          "name": "receiver",
          "type": "address"
        }
      ],
      "name": "ERC20InvalidReceiver",
      "type": "error"
    },
    {
      "inputs": [
        {
          "internalType": "address",
          "name": "sender",
          "type": "address"
        }
      ],
      "name": "ERC20InvalidSender",
      "type": "error"
    },
    {
      "inputs": [
        {
          "internalType": "address",
          "name": "spender",
          "type": "address"
        }
      ],
      "name": "ERC20InvalidSpender",
      "type": "error"
    },
    {
      "anonymous": false,
      "inputs": [
        {
          "indexed": true,
          "internalType": "address",
          "name": "owner",
          "type": "address"
        },
        {
          "indexed": true,
          "internalType": "address",
          "name": "spender",
          "type": "address"
        },
        {
          "indexed": false,
          "internalType": "uint256",
          "name": "value",
          "type": "uint256"
        }
      ],
      "name": "Approval",
      "type": "event"
    },
    {
      "anonymous": false,
      "inputs": [
        {
          "indexed": true,
          "internalType": "address",
          "name": "from",
          "type": "address"
        },
        {
          "indexed": true,
          "internalType": "address",
          "name": "to",
          "type": "address"
        },
        {
          "indexed": false,
          "internalType": "uint256",
          "name": "value",
          "type": "uint256"
        }
      ],
      "name": "Transfer",
      "type": "event"
    },
    {
      "inputs": [
        {
          "internalType": "address",
          "name": "owner",
          "type": "address"
        },
        {
          "internalType": "address",
          "name": "spender",
          "type": "address"
        }
      ],
      "name": "allowance",
      "outputs": [
        {
          "internalType": "uint256",
          "name": "",
          "type": "uint256"
        }
      ],
      "stateMutability": "view",
      "type": "function"
    },
    {
      "inputs": [
        {
          "internalType": "address",
          "name": "spender",
          "type": "address"
        },
        {
          "internalType": "uint256",
          "name": "value",
          "type": "uint256"
        }
      ],
      "name": "approve",
      "outputs": [
        {
          "internalType": "bool",
          "name": "",
          "type": "bool"
        }
      ],
      "stateMutability": "nonpayable",
      "type": "function"
    },
    {
      "inputs": [
        {
          "internalType": "address",
          "name": "account",
          "type": "address"
        }
      ],
      "name": "balanceOf",
      "outputs": [
        {
          "internalType": "uint256",
          "name": "",
          "type": "uint256"
        }
      ],
      "stateMutability": "view",
      "type": "function"
    },
    {
      "inputs": [],
      "name": "bdolaToken",
      "outputs": [
        {
          "internalType": "contract IERC20",
          "name": "",
          "type": "address"
        }
      ],
      "stateMutability": "view",
      "type": "function"
    },
    {
      "inputs": [
        {
          "internalType": "uint256",
          "name": "amount",
          "type": "uint256"
        }
      ],
      "name": "burn",
      "outputs": [],
      "stateMutability": "nonpayable",
      "type": "function"
    },
    {
      "inputs": [],
      "name": "decimals",
      "outputs": [
        {
          "internalType": "uint8",
          "name": "",
          "type": "uint8"
        }
      ],
      "stateMutability": "view",
      "type": "function"
    },
    {
      "inputs": [
        {
          "internalType": "contract AggregatorV3Interface",
          "name": "priceFeed",
          "type": "address"
        }
      ],
      "name": "getLatestPrice",
      "outputs": [
        {
          "internalType": "int256",
          "name": "",
          "type": "int256"
        }
      ],
      "stateMutability": "view",
      "type": "function"
    },
    {
      "inputs": [
        {
          "internalType": "uint256",
          "name": "amount",
          "type": "uint256"
        }
      ],
      "name": "mint",
      "outputs": [],
      "stateMutability": "payable",
      "type": "function"
    },
    {
      "inputs": [],
      "name": "name",
      "outputs": [
        {
          "internalType": "string",
          "name": "",
          "type": "string"
        }
      ],
      "stateMutability": "view",
      "type": "function"
    },
    {
      "inputs": [],
      "name": "symbol",
      "outputs": [
        {
          "internalType": "string",
          "name": "",
          "type": "string"
        }
      ],
      "stateMutability": "view",
      "type": "function"
    },
    {
      "inputs": [],
      "name": "totalSupply",
      "outputs": [
        {
          "internalType": "uint256",
          "name": "",
          "type": "uint256"
        }
      ],
      "stateMutability": "view",
      "type": "function"
    },
    {
      "inputs": [
        {
          "internalType": "address",
          "name": "to",
          "type": "address"
        },
        {
          "internalType": "uint256",
          "name": "value",
          "type": "uint256"
        }
      ],
      "name": "transfer",
      "outputs": [
        {
          "internalType": "bool",
          "name": "",
          "type": "bool"
        }
      ],
      "stateMutability": "nonpayable",
      "type": "function"
    },
    {
      "inputs": [
        {
          "internalType": "address",
          "name": "from",
          "type": "address"
        },
        {
          "internalType": "address",
          "name": "to",
          "type": "address"
        },
        {
          "internalType": "uint256",
          "name": "value",
          "type": "uint256"
        }
      ],
      "name": "transferFrom",
      "outputs": [
        {
          "internalType": "bool",
          "name": "",
          "type": "bool"
        }
      ],
      "stateMutability": "nonpayable",
      "type": "function"
    }
  ],
  "bytecode": "0x60806040523480156200001157600080fd5b506040516200260138038062002601833981810160405281019062000037919062000325565b848481600390816200004a919062000636565b5080600490816200005c919062000636565b50505082600560006101000a81548173ffffffffffffffffffffffffffffffffffffffff021916908373ffffffffffffffffffffffffffffffffffffffff16021790555081600660006101000a81548173ffffffffffffffffffffffffffffffffffffffff021916908373ffffffffffffffffffffffffffffffffffffffff16021790555080600760006101000a81548173ffffffffffffffffffffffffffffffffffffffff021916908373ffffffffffffffffffffffffffffffffffffffff16021790555050505050506200071d565b6000604051905090565b600080fd5b600080fd5b600080fd5b600080fd5b6000601f19601f8301169050919050565b7f4e487b7100000000000000000000000000000000000000000000000000000000600052604160045260246000fd5b62000196826200014b565b810181811067ffffffffffffffff82111715620001b857620001b76200015c565b5b80604052505050565b6000620001cd6200012d565b9050620001db82826200018b565b919050565b600067ffffffffffffffff821115620001fe57620001fd6200015c565b5b62000209826200014b565b9050602081019050919050565b60005b838110156200023657808201518184015260208101905062000219565b60008484015250505050565b6000620002596200025384620001e0565b620001c1565b90508281526020810184848401111562000278576200027762000146565b5b6200028584828562000216565b509392505050565b600082601f830112620002a557620002a462000141565b5b8151620002b784826020860162000242565b91505092915050565b600073ffffffffffffffffffffffffffffffffffffffff82169050919050565b6000620002ed82620002c0565b9050919050565b620002ff81620002e0565b81146200030b57600080fd5b50565b6000815190506200031f81620002f4565b92915050565b600080600080600060a0868803121562000344576200034362000137565b5b600086015167ffffffffffffffff8111156200036557620003646200013c565b5b62000373888289016200028d565b955050602086015167ffffffffffffffff8111156200039757620003966200013c565b5b620003a5888289016200028d565b9450506040620003b8888289016200030e565b9350506060620003cb888289016200030e565b9250506080620003de888289016200030e565b9150509295509295909350565b600081519050919050565b7f4e487b7100000000000000000000000000000000000000000000000000000000600052602260045260246000fd5b600060028204905060018216806200043e57607f821691505b602082108103620004545762000453620003f6565b5b50919050565b60008190508160005260206000209050919050565b60006020601f8301049050919050565b600082821b905092915050565b600060088302620004be7fffffffffffffffffffffffffffffffffffffffffffffffffffffffffffffffff826200047f565b620004ca86836200047f565b95508019841693508086168417925050509392505050565b6000819050919050565b6000819050919050565b600062000517620005116200050b84620004e2565b620004ec565b620004e2565b9050919050565b6000819050919050565b6200053383620004f6565b6200054b62000542826200051e565b8484546200048c565b825550505050565b600090565b6200056262000553565b6200056f81848462000528565b505050565b5b8181101562000597576200058b60008262000558565b60018101905062000575565b5050565b601f821115620005e657620005b0816200045a565b620005bb846200046f565b81016020851015620005cb578190505b620005e3620005da856200046f565b83018262000574565b50505b505050565b600082821c905092915050565b60006200060b60001984600802620005eb565b1980831691505092915050565b6000620006268383620005f8565b9150826002028217905092915050565b6200064182620003eb565b67ffffffffffffffff8111156200065d576200065c6200015c565b5b62000669825462000425565b620006768282856200059b565b600060209050601f831160018114620006ae576000841562000699578287015190505b620006a5858262000618565b86555062000715565b601f198416620006be866200045a565b60005b82811015620006e857848901518255600182019150602085019450602081019050620006c1565b8683101562000708578489015162000704601f891682620005f8565b8355505b6001600288020188555050505b505050505050565b611ed4806200072d6000396000f3fe6080604052600436106100c25760003560e01c806342966c681161007f57806395d89b411161005957806395d89b4114610290578063a0712d68146102bb578063a9059cbb146102d7578063dd62ed3e14610314576100c2565b806342966c68146101ff57806370a082311461022857806390c56a6514610265576100c2565b806306fdde03146100c7578063095ea7b3146100f257806316345f181461012f57806318160ddd1461016c57806323b872dd14610197578063313ce567146101d4575b600080fd5b3480156100d357600080fd5b506100dc610351565b6040516100e991906113d3565b60405180910390f35b3480156100fe57600080fd5b506101196004803603810190610114919061148e565b6103e3565b60405161012691906114e9565b60405180910390f35b34801561013b57600080fd5b5061015660048036038101906101519190611542565b610406565b6040516101639190611588565b60405180910390f35b34801561017857600080fd5b50610181610487565b60405161018e91906115b2565b60405180910390f35b3480156101a357600080fd5b506101be60048036038101906101b991906115cd565b610491565b6040516101cb91906114e9565b60405180910390f35b3480156101e057600080fd5b506101e96104c0565b6040516101f6919061163c565b60405180910390f35b34801561020b57600080fd5b5061022660048036038101906102219190611657565b6104c9565b005b34801561023457600080fd5b5061024f600480360381019061024a9190611684565b6106fa565b60405161025c91906115b2565b60405180910390f35b34801561027157600080fd5b5061027a610742565b6040516102879190611710565b60405180910390f35b34801561029c57600080fd5b506102a5610768565b6040516102b291906113d3565b60405180910390f35b6102d560048036038101906102d09190611657565b6107fa565b005b3480156102e357600080fd5b506102fe60048036038101906102f9919061148e565b610bf7565b60405161030b91906114e9565b60405180910390f35b34801561032057600080fd5b5061033b6004803603810190610336919061172b565b610c1a565b60405161034891906115b2565b60405180910390f35b6060600380546103609061179a565b80601f016020809104026020016040519081016040528092919081815260200182805461038c9061179a565b80156103d95780601f106103ae576101008083540402835291602001916103d9565b820191906000526020600020905b8154815290600101906020018083116103bc57829003601f168201915b5050505050905090565b6000806103ee610ca1565b90506103fb818585610ca9565b600191505092915050565b6000808273ffffffffffffffffffffffffffffffffffffffff1663feaf968c6040518163ffffffff1660e01b815260040160a060405180830381865afa158015610454573d6000803e3d6000fd5b505050506040513d601f19601f82011682018060405250810190610478919061184e565b50505091505080915050919050565b6000600254905090565b60008061049c610ca1565b90506104a9858285610cbb565b6104b4858585610d4f565b60019150509392505050565b60006012905090565b60006104f6600560009054906101000a900473ffffffffffffffffffffffffffffffffffffffff16610406565b90506000811361053b576040517f08c379a000000000000000000000000000000000000000000000000000000000815260040161053290611915565b60405180910390fd5b6000610568600660009054906101000a900473ffffffffffffffffffffffffffffffffffffffff16610406565b9050600081136105ad576040517f08c379a00000000000000000000000000000000000000000000000000000000081526004016105a490611981565b60405180910390fd5b60008183856105bc91906119d0565b6105c69190611a41565b90506000811161060b576040517f08c379a000000000000000000000000000000000000000000000000000000000815260040161060290611abe565b60405180910390fd5b6106153385610e43565b600760009054906101000a900473ffffffffffffffffffffffffffffffffffffffff1673ffffffffffffffffffffffffffffffffffffffff1663a9059cbb33836040518363ffffffff1660e01b8152600401610672929190611aed565b6020604051808303816000875af1158015610691573d6000803e3d6000fd5b505050506040513d601f19601f820116820180604052508101906106b59190611b42565b6106f4576040517f08c379a00000000000000000000000000000000000000000000000000000000081526004016106eb90611bbb565b60405180910390fd5b50505050565b60008060008373ffffffffffffffffffffffffffffffffffffffff1673ffffffffffffffffffffffffffffffffffffffff168152602001908152602001600020549050919050565b600760009054906101000a900473ffffffffffffffffffffffffffffffffffffffff1681565b6060600480546107779061179a565b80601f01602080910402602001604051908101604052809291908181526020018280546107a39061179a565b80156107f05780601f106107c5576101008083540402835291602001916107f0565b820191906000526020600020905b8154815290600101906020018083116107d357829003601f168201915b5050505050905090565b6000610827600560009054906101000a900473ffffffffffffffffffffffffffffffffffffffff16610406565b90506000811361086c576040517f08c379a000000000000000000000000000000000000000000000000000000000815260040161086390611915565b60405180910390fd5b6000610899600660009054906101000a900473ffffffffffffffffffffffffffffffffffffffff16610406565b9050600081136108de576040517f08c379a00000000000000000000000000000000000000000000000000000000081526004016108d590611981565b60405180910390fd5b60008183856108ed91906119d0565b6108f79190611a41565b90506000811161093c576040517f08c379a000000000000000000000000000000000000000000000000000000000815260040161093390611c27565b60405180910390fd5b6000600760009054906101000a900473ffffffffffffffffffffffffffffffffffffffff1673ffffffffffffffffffffffffffffffffffffffff166370a08231336040518263ffffffff1660e01b81526004016109999190611c47565b602060405180830381865afa1580156109b6573d6000803e3d6000fd5b505050506040513d601f19601f820116820180604052508101906109da9190611c62565b90506000600760009054906101000a900473ffffffffffffffffffffffffffffffffffffffff1673ffffffffffffffffffffffffffffffffffffffff1663dd62ed3e33306040518363ffffffff1660e01b8152600401610a3b929190611c8f565b602060405180830381865afa158015610a58573d6000803e3d6000fd5b505050506040513d601f19601f82011682018060405250810190610a7c9190611c62565b905082821015610ac1576040517f08c379a0000000000000000000000000000000000000000000000000000000008152600401610ab890611d04565b60405180910390fd5b82811015610b04576040517f08c379a0000000000000000000000000000000000000000000000000000000008152600401610afb90611d70565b60405180910390fd5b600760009054906101000a900473ffffffffffffffffffffffffffffffffffffffff1673ffffffffffffffffffffffffffffffffffffffff166323b872dd3330866040518463ffffffff1660e01b8152600401610b6393929190611d90565b6020604051808303816000875af1158015610b82573d6000803e3d6000fd5b505050506040513d601f19601f82011682018060405250810190610ba69190611b42565b610be5576040517f08c379a0000000000000000000000000000000000000000000000000000000008152600401610bdc90611e13565b60405180910390fd5b610bef3387610ec5565b505050505050565b600080610c02610ca1565b9050610c0f818585610d4f565b600191505092915050565b6000600160008473ffffffffffffffffffffffffffffffffffffffff1673ffffffffffffffffffffffffffffffffffffffff16815260200190815260200160002060008373ffffffffffffffffffffffffffffffffffffffff1673ffffffffffffffffffffffffffffffffffffffff16815260200190815260200160002054905092915050565b600033905090565b610cb68383836001610f47565b505050565b6000610cc78484610c1a565b90507fffffffffffffffffffffffffffffffffffffffffffffffffffffffffffffffff8114610d495781811015610d39578281836040517ffb8f41b2000000000000000000000000000000000000000000000000000000008152600401610d3093929190611e33565b60405180910390fd5b610d4884848484036000610f47565b5b50505050565b600073ffffffffffffffffffffffffffffffffffffffff168373ffffffffffffffffffffffffffffffffffffffff1603610dc15760006040517f96c6fd1e000000000000000000000000000000000000000000000000000000008152600401610db89190611c47565b60405180910390fd5b600073ffffffffffffffffffffffffffffffffffffffff168273ffffffffffffffffffffffffffffffffffffffff1603610e335760006040517fec442f05000000000000000000000000000000000000000000000000000000008152600401610e2a9190611c47565b60405180910390fd5b610e3e83838361111e565b505050565b600073ffffffffffffffffffffffffffffffffffffffff168273ffffffffffffffffffffffffffffffffffffffff1603610eb55760006040517f96c6fd1e000000000000000000000000000000000000000000000000000000008152600401610eac9190611c47565b60405180910390fd5b610ec18260008361111e565b5050565b600073ffffffffffffffffffffffffffffffffffffffff168273ffffffffffffffffffffffffffffffffffffffff1603610f375760006040517fec442f05000000000000000000000000000000000000000000000000000000008152600401610f2e9190611c47565b60405180910390fd5b610f436000838361111e565b5050565b600073ffffffffffffffffffffffffffffffffffffffff168473ffffffffffffffffffffffffffffffffffffffff1603610fb95760006040517fe602df05000000000000000000000000000000000000000000000000000000008152600401610fb09190611c47565b60405180910390fd5b600073ffffffffffffffffffffffffffffffffffffffff168373ffffffffffffffffffffffffffffffffffffffff160361102b5760006040517f94280d620000000000000000000000000000000000000000000000000000000081526004016110229190611c47565b60405180910390fd5b81600160008673ffffffffffffffffffffffffffffffffffffffff1673ffffffffffffffffffffffffffffffffffffffff16815260200190815260200160002060008573ffffffffffffffffffffffffffffffffffffffff1673ffffffffffffffffffffffffffffffffffffffff168152602001908152602001600020819055508015611118578273ffffffffffffffffffffffffffffffffffffffff168473ffffffffffffffffffffffffffffffffffffffff167f8c5be1e5ebec7d5bd14f71427d1e84f3dd0314c0f7b2291e5b200ac8c7c3b9258460405161110f91906115b2565b60405180910390a35b50505050565b600073ffffffffffffffffffffffffffffffffffffffff168373ffffffffffffffffffffffffffffffffffffffff16036111705780600260008282546111649190611e6a565b92505081905550611243565b60008060008573ffffffffffffffffffffffffffffffffffffffff1673ffffffffffffffffffffffffffffffffffffffff168152602001908152602001600020549050818110156111fc578381836040517fe450d38c0000000000000000000000000000000000000000000000000000000081526004016111f393929190611e33565b60405180910390fd5b8181036000808673ffffffffffffffffffffffffffffffffffffffff1673ffffffffffffffffffffffffffffffffffffffff16815260200190815260200160002081905550505b600073ffffffffffffffffffffffffffffffffffffffff168273ffffffffffffffffffffffffffffffffffffffff160361128c57806002600082825403925050819055506112d9565b806000808473ffffffffffffffffffffffffffffffffffffffff1673ffffffffffffffffffffffffffffffffffffffff168152602001908152602001600020600082825401925050819055505b8173ffffffffffffffffffffffffffffffffffffffff168373ffffffffffffffffffffffffffffffffffffffff167fddf252ad1be2c89b69c2b068fc378daa952ba7f163c4a11628f55a4df523b3ef8360405161133691906115b2565b60405180910390a3505050565b600081519050919050565b600082825260208201905092915050565b60005b8381101561137d578082015181840152602081019050611362565b60008484015250505050565b6000601f19601f8301169050919050565b60006113a582611343565b6113af818561134e565b93506113bf81856020860161135f565b6113c881611389565b840191505092915050565b600060208201905081810360008301526113ed818461139a565b905092915050565b600080fd5b600073ffffffffffffffffffffffffffffffffffffffff82169050919050565b6000611425826113fa565b9050919050565b6114358161141a565b811461144057600080fd5b50565b6000813590506114528161142c565b92915050565b6000819050919050565b61146b81611458565b811461147657600080fd5b50565b60008135905061148881611462565b92915050565b600080604083850312156114a5576114a46113f5565b5b60006114b385828601611443565b92505060206114c485828601611479565b9150509250929050565b60008115159050919050565b6114e3816114ce565b82525050565b60006020820190506114fe60008301846114da565b92915050565b600061150f8261141a565b9050919050565b61151f81611504565b811461152a57600080fd5b50565b60008135905061153c81611516565b92915050565b600060208284031215611558576115576113f5565b5b60006115668482850161152d565b91505092915050565b6000819050919050565b6115828161156f565b82525050565b600060208201905061159d6000830184611579565b92915050565b6115ac81611458565b82525050565b60006020820190506115c760008301846115a3565b92915050565b6000806000606084860312156115e6576115e56113f5565b5b60006115f486828701611443565b935050602061160586828701611443565b925050604061161686828701611479565b9150509250925092565b600060ff82169050919050565b61163681611620565b82525050565b6000602082019050611651600083018461162d565b92915050565b60006020828403121561166d5761166c6113f5565b5b600061167b84828501611479565b91505092915050565b60006020828403121561169a576116996113f5565b5b60006116a884828501611443565b91505092915050565b6000819050919050565b60006116d66116d16116cc846113fa565b6116b1565b6113fa565b9050919050565b60006116e8826116bb565b9050919050565b60006116fa826116dd565b9050919050565b61170a816116ef565b82525050565b60006020820190506117256000830184611701565b92915050565b60008060408385031215611742576117416113f5565b5b600061175085828601611443565b925050602061176185828601611443565b9150509250929050565b7f4e487b7100000000000000000000000000000000000000000000000000000000600052602260045260246000fd5b600060028204905060018216806117b257607f821691505b6020821081036117c5576117c461176b565b5b50919050565b600069ffffffffffffffffffff82169050919050565b6117ea816117cb565b81146117f557600080fd5b50565b600081519050611807816117e1565b92915050565b6118168161156f565b811461182157600080fd5b50565b6000815190506118338161180d565b92915050565b60008151905061184881611462565b92915050565b600080600080600060a0868803121561186a576118696113f5565b5b6000611878888289016117f8565b955050602061188988828901611824565b945050604061189a88828901611839565b93505060606118ab88828901611839565b92505060806118bc888289016117f8565b9150509295509295909350565b7f496e76616c696420524f49207072696365000000000000000000000000000000600082015250565b60006118ff60118361134e565b915061190a826118c9565b602082019050919050565b6000602082019050818103600083015261192e816118f2565b9050919050565b7f496e76616c69642042444f4c4120707269636500000000000000000000000000600082015250565b600061196b60138361134e565b915061197682611935565b602082019050919050565b6000602082019050818103600083015261199a8161195e565b9050919050565b7f4e487b7100000000000000000000000000000000000000000000000000000000600052601160045260246000fd5b60006119db82611458565b91506119e683611458565b92508282026119f481611458565b91508282048414831517611a0b57611a0a6119a1565b5b5092915050565b7f4e487b7100000000000000000000000000000000000000000000000000000000600052601260045260246000fd5b6000611a4c82611458565b9150611a5783611458565b925082611a6757611a66611a12565b5b828204905092915050565b7f496e76616c69642072657475726e20616d6f756e740000000000000000000000600082015250565b6000611aa860158361134e565b9150611ab382611a72565b602082019050919050565b60006020820190508181036000830152611ad781611a9b565b9050919050565b611ae78161141a565b82525050565b6000604082019050611b026000830185611ade565b611b0f60208301846115a3565b9392505050565b611b1f816114ce565b8114611b2a57600080fd5b50565b600081519050611b3c81611b16565b92915050565b600060208284031215611b5857611b576113f5565b5b6000611b6684828501611b2d565b91505092915050565b7f436f6c6c61746572616c2072657475726e206661696c65640000000000000000600082015250565b6000611ba560188361134e565b9150611bb082611b6f565b602082019050919050565b60006020820190508181036000830152611bd481611b98565b9050919050565b7f496e76616c696420636f6c6c61746572616c20616d6f756e7400000000000000600082015250565b6000611c1160198361134e565b9150611c1c82611bdb565b602082019050919050565b60006020820190508181036000830152611c4081611c04565b9050919050565b6000602082019050611c5c6000830184611ade565b92915050565b600060208284031215611c7857611c776113f5565b5b6000611c8684828501611839565b91505092915050565b6000604082019050611ca46000830185611ade565b611cb16020830184611ade565b9392505050565b7f496e73756666696369656e742042444f4c412062616c616e6365000000000000600082015250565b6000611cee601a8361134e565b9150611cf982611cb8565b602082019050919050565b60006020820190508181036000830152611d1d81611ce1565b9050919050565b7f496e73756666696369656e742042444f4c4120616c6c6f77616e636500000000600082015250565b6000611d5a601c8361134e565b9150611d6582611d24565b602082019050919050565b60006020820190508181036000830152611d8981611d4d565b9050919050565b6000606082019050611da56000830186611ade565b611db26020830185611ade565b611dbf60408301846115a3565b949350505050565b7f436f6c6c61746572616c207472616e73666572206661696c6564000000000000600082015250565b6000611dfd601a8361134e565b9150611e0882611dc7565b602082019050919050565b60006020820190508181036000830152611e2c81611df0565b9050919050565b6000606082019050611e486000830186611ade565b611e5560208301856115a3565b611e6260408301846115a3565b949350505050565b6000611e7582611458565b9150611e8083611458565b9250828201905080821115611e9857611e976119a1565b5b9291505056fea2646970667358221220557a4e74078595efbf3c91a4172eed8a99444bf3d7f6861b9918fc246635181464736f6c63430008140033",
  "linkReferences": {},
  "deployedLinkReferences": {}
}